:020000040800F2
:10400000E0170020014100089D5300089953000863
:104010009B53000831420008895700080000000047
:10402000000000000000000000000000A153000894
:104030004D420008000000009F5300088155000811
:104040001B4100081B4100081B4100081B410008E0
:104050001B4100081B4100081B4100081B410008D0
:104060001B4100081B4100081B4100081B410008C0
:104070001B4100081B41000835420008414200086E
:104080001B4100081B4100081B4100081B410008A0
:104090001B4100081B4100081B4100081B41000890
:1040A0001B4100081B4100081B4100081B41000880
:1040B0001B4100081B4100081B4100081B41000870
:1040C0001B4100081B4100081B4100081B41000860
:1040D0001B4100087D5700081B4100081B410008D8
:1040E0001B4100081B4100081B410008DFF80CD0F1
:1040F00000F03CF800480047CD570008E0170020CA
:104100000648804706480047FEE7FEE7FEE7FEE771
:10411000FEE7FEE7FEE7FEE7FEE7FEE711560008D2
:10412000ED40000840EA01039B0703D009E008C9FD
:10413000121F08C0042AFAD203E011F8013B00F86C
:10414000013B521EF9D27047D2B201E000F8012BB8
:10415000491EFBD270470022F6E710B513460A4607
:1041600004461946FFF7F0FF204610BD064C074DE8
:1041700006E0E06840F0010394E807009847103437
:10418000AC42F6D3FFF7B6FF0C5900082C590008D3
:1041900000F012F801F04EF94C2205490548FFF7EE
:1041A000C1FF044801F0FEF8002001F061F9FBE7CF
:1041B000F85700081C1000200020704730B50F4849
:1041C00085B0816941F01001816180694FF400542C
:1041D00000F0100004900120CDE900400290022080
:1041E000074D03906946284600F028F90122214630
:1041F000284600F0B7FA05B0002030BD001002409C
:104200000010014010B501225103024800F0AAFA43
:10421000002010BD0010014010B500224FF40051E5
:10422000024800F09FFA002010BD0000001001407D
:10423000FEE70000014800F057B80000A810002079
:10424000014800F051B80000EC1000207047000059
:1042500010B590F821100024022903D004218163B5
:1042600001243DE001680A6822F00E020A6001683C
:104270000A6822F001020A601A4A0168914201D1DB
:10428000012121E0174A1432914201D110211BE093
:10429000144A2832914201D1891515E0114A3C3265
:1042A000914201D189140FE00E4A5032914202D15D
:1042B0004FF4803108E00B4A6432914202D14FF44E
:1042C000801101E04FF08071064A083A51600121E7
:1042D00080F82110002180F82010416B01B188473F
:1042E000204610BD080002402DE9F05FC16B0C684C
:1042F00001680B68D0F840C0042202FA0CF2494D64
:10430000DFF824A1494E4A4FDFF828B1DFF828E151
:1043100022422CD05A072AD50A68920603D40A688A
:1043200022F004020A600168A94201D1042219E0C6
:10433000514501D1402215E0B14202D14FF48062D3
:1043400010E0B94202D14FF480420BE0594502D14E
:104350004FF4802206E0714502D14FF4800201E063
:104360004FF080622F4908394A60C16A3BE04FF044
:10437000020808FA0CF818EA040F4FF000094FF091
:10438000010235D05FEA837832D50B689B0605D4ED
:104390000B6823F00A030B6080F821200168A94212
:1043A00001D1022219E0514501D1202215E0B1428C
:1043B00002D14FF4007210E0B94202D14FF4005222
:1043C0000BE0594502D14FF4003206E0714502D1AD
:1043D0004FF4001201E04FF00072124908394A60B0
:1043E00080F82090816A00291AD0BDE8F05F084764
:1043F000082505FA0CF5254212D01B0710D50B68CD
:1044000023F00E030B6090F84010C36B02FA01F129
:104410005960826380F8212080F82090016BE2E7E8
:10442000BDE8F09F080002401C000240300002403E
:1044300044000240580002406C0002402DE9F84F51
:104440000026DFF89CB20D460446B14658450FD011
:10445000A44884420CD0A448844209D0A348844292
:1044600006D0A348844203D0BD21A2A001F0ACF93C
:1044700028680104090C01D0000C03D0BE219DA0C6
:1044800001F0A2F96868DFF8ACA200281ED001286C
:10449000FCD01128FAD00228F8D01228F6D05045C6
:1044A000F4D0A5498842F1D0A4498842EED0A4496D
:1044B0008842EBD0A3498842E8D0A3498842E5D09E
:1044C0000328E3D0BF218BA001F07EF900E1012099
:1044D00000FA06F807EA080747456FD15C450FD098
:1044E000804884420CD08048844209D07F4884426E
:1044F00006D07F48844203D0CD217EA001F064F92C
:104500006868A0EB0A02504559D00EDC032875D02C
:1045100006DC002853D0012819D0022869D131E0E7
:10452000112821D0122864D13AE0B2F5881F46D074
:1045300006DCB2F5803F42D0B2F5801F59D13EE093
:10454000B2F5001F3BD0B2F5041F52D137E0E86846
:10455000022807D0012805D0032803D0D52165A063
:1045600001F032F9E8683EE0E868022807D0012847
:1045700005D0032803D0DC215EA001F025F9E8680E
:10458000001D30E0E868022807D0012805D0032884
:1045900003D0E32157A001F017F9E868083022E0C2
:1045A000E868022807D0012805D0032803D0EA21B3
:1045B00050A001F009F9E8680C3014E087E0A86821
:1045C00080B1012811D0022807D0F72149A001F0BD
:1045D000FBF8A86830B1012807D04FF00809C4F8EB
:1045E000148006E00420814603E04FF00809C4F877
:1045F0001080FF2F05D8214605E0FFE74FF00000AF
:10460000F1E704F104014FEA860001D9A0F120008E
:104610000B684FF00F0202FA00FC23EA0C0309FAC0
:1046200000FC43EA0C030B606868C0004FD54748A4
:10463000816941F001018161806926F0030100F088
:104640000100009042480B189868B1074FEA117CAE
:1046500002FA0CF290435C4501D100210FE02149A0
:104660008C4201D101210AE01F498C4201D1022173
:1046700005E01E498C4201D1032100E0042101FA2A
:104680000CF1014399606868C0033248016801D5A4
:10469000394300E0B9430160686880032E4801682F
:1046A00001D5394300E0B94301606868C0022B4876
:1046B000016801D5394300E0B943016068688002B0
:1046C0002748016801D5394300E0B9430160761CF1
:1046D0002F6837FA06F07FF4FAAEBDE8F88F0000D5
:1046E00000080140000C014000100140001401408E
:1046F000001801402E2E5C2E2E5C2E2E5C4472691A
:10470000766572735C53544D3332463178785F4826
:10471000414C5F4472697665725C5372635C73747A
:104720006D3332663178785F68616C5F6770696F8E
:104730002E63000000001110000021100000311055
:104740000000121000002210000032100010024081
:10475000000001400004014004040140080401403D
:104760000C04014070B515460C00064604D14FF408
:10477000EA7108A001F028F845B1012D04D040F2FB
:10478000D51104A001F020F8346170BD200430611F
:1047900070BD00002E2E5C2E2E5C2E2E5C447269A5
:1047A000766572735C53544D3332463178785F4886
:1047B000414C5F4472697665725C5372635C7374DA
:1047C0006D3332663178785F68616C5F6770696FEE
:1047D0002E6300000148806870470000041000202C
:1047E00002488168027811448160704704100020FB
:1047F000074810B5016841F010010160032000F086
:104800009DF8002000F006F800F024F8002010BD0C
:104810000020024070B50D4D04464FF47A7128789F
:10482000B1FBF0F00A490968B1FBF0F000F011FDAE
:1048300048B9102C07D200222146501E00F04AF839
:1048400000206C6070BD012070BD000004100020CD
:10485000001000201D4808B5816941F00101816107
:10486000806900F001000090032000F067F800224A
:1048700011466FF00B0000F02DF8002211466FF08A
:104880000A0000F027F8002211466FF0090000F03E
:1048900021F800221146501F00F01CF8002211469A
:1048A000101F00F017F800221146901E00F012F8B9
:1048B00000221146501E00F00DF80548416821F015
:1048C000E06141F00071416008BD0000001002404D
:1048D0000000014070B515460C460646102A03D369
:1048E000AA21144800F070FF102C03D3AB2111480B
:1048F00000F06AFF10480068C0F30223C3F107020A
:104900002046042A00D90422191D072901D20023B8
:1049100000E0DB1E012404FA02F1491E0140994027
:104920009C40641E2C4021433046BDE8704000F09E
:104930002CBF0000845800080CED00E010B50446C0
:1049400007280BD0062C09D0052C07D0042C05D045
:10495000032C03D09221084800F036FF074904F0E9
:10496000070208684FF6FF03184040EA0220044A95
:104970001043086010BD0000845800080CED00E0F2
:104980000000FA052DE9F84304460068504DC107C0
:104990000AD181076FD4C0067ED46C214D4800F047
:1049A00013FF2078C00763D0606860B1B0F5807FE6
:1049B00009D0B0F5007F06D0B0F5407F03D072215A
:1049C000444800F001FFE8690026C00008D4E86907
:1049D00040F08050E861E869012600F080500090C6
:1049E0003D480168C90512D40168804641F48071D0
:1049F0000160FFF7EFFE074605E000BFFFF7EAFEA4
:104A0000C01B642823D8D8F80000C005F6D5286A52
:104A100010F4407021D0A18801F4407181421CD073
:104A2000286A2E49012220F440700A6000220A60A0
:104A30002862C00711D0FFF7CDFE074641F2883843
:104A400008E000BFFFF7C6FEC11B414502D90320A5
:104A5000BDE8F883286A8007F4D5286A616820F4E5
:104A60004070084328621EB1E86920F08050E86178
:104A70002078800716D5A06860B1B0F5804F09D0C6
:104A8000B0F5004F06D0B0F5404F03D0B921114822
:104A900000F09AFE686800E007E0A16820F440405A
:104AA000084368602078C0060FD5E068B0F5800F35
:104AB00005D020B140F21511064800F085FE686867
:104AC000E16820F48000084368600020C0E700002F
:104AD00000100240C85800080070004040044242E4
:104AE0002DE9F0470F46050078D02868C1070AD1A4
:104AF000810708D4410706D4000704D44FF44E714F
:104B00006FA000F061FE47B1012F06D0022F04D044
:104B100040F239316AA000F057FE794E306800F05B
:104B20000700B84209D2306820F0070038433060EF
:104B3000306800F00700B84277D12868714C8107CF
:104B400029D5400703D5606840F4E06060602878AC
:104B5000000703D5606840F460506060A868A0B1A9
:104B6000802812D0902810D0A0280ED0B0280CD0C9
:104B7000C0280AD0D02808D0E02806D0F02804D0D9
:104B800040F25F314EA000F01FFE6068A96820F07F
:104B9000F000084360602878C00737D0686868B1C3
:104BA00001281CD002281DD040F2663144A000F03C
:104BB0000BFE6868012812D0022813D020688007F5
:104BC000002832DA6068696820F0030008436060FA
:104BD000FFF700FE804641F2883910E025E02068AA
:104BE0008003EDE720688001EAE700BFFFF7F2FDF0
:104BF000A0EB0801494502D90320BDE8F0876068B1
:104C0000696800F00C00B0EB810FEFD1306800F064
:104C10000700B8420BD9306820F0070038433060F5
:104C2000306800F00700B84201D00120E5E728789D
:104C30004FF4806640074FF4A0674FF4C0684FF40C
:104C4000E06914D5E86860B1B0420AD0B84208D033
:104C5000404506D0484504D04FF4697118A000F0D3
:104C6000B3FD6068E96820F4E0600843606028787C
:104C7000000715D5286960B1B0420AD0B84208D003
:104C8000404506D0484504D040F2AB310CA000F0BE
:104C90009BFD6068296920F4605040EAC1006060B3
:104CA00000F03EF86168184AC1F30311515CC84036
:104CB0001649086016480068FFF7ACFD00209CE725
:104CC0002E2E5C2E2E5C2E2E5C44726976657273DD
:104CD0005C53544D3332463178785F48414C5F44E1
:104CE00072697665725C5372635C73746D3332669D
:104CF0003178785F68616C5F7263632E63000000D7
:104D00000020024000100240E85700080010002078
:104D100008100020014800687047000000100020C3
:104D200012A185B00FC98DE80F0014A0144A0068C5
:104D300004905168134801F00C03042B10D0082B89
:104D40000ED1C1F38343C9031DF803000AD551688E
:104D500004AAC1F34041515C0A4A5043B0FBF1F050
:104D600005B0704708494843FAE70000020304050C
:104D7000060708090A0B0C0D0E0F101001020000A7
:104D80000010024000127A0000093D002DE9F84FA2
:104D900004007DD0FA4EFB4D20684FF0010A4FF021
:104DA00000084FF4803960B1C1070DD1810762D48A
:104DB00001076ED440076DD440F26711F2A000F0F5
:104DC00003FD2078C00753D060684FF4A02740B19E
:104DD000484506D0B84204D040F26D11EAA000F078
:104DE000F3FC6868C0F38100012807D06868C0F34D
:104DF0008100022809D16868C00306D528688003AD
:104E000036D560680028C4D032E06068484503D1D8
:104E1000286840F4803009E008B1B8420DD0286815
:104E200020F480302860286820F4802028606068A2
:104E300088B1FFF7CFFC074609E0286840F48020DE
:104E40002860E5E7FFF7C6FCC01B642877D8286810
:104E50008003F7D50CE0FFF7BDFC074605E000BF77
:104E6000FFF7B8FCC01B6428F0D828688003F7D48B
:104E7000207880074ED5206930B1012804D040F257
:104E8000A111C1A000F0A0FC60691F2808D902E0B0
:104E900096E042E07BE04FF4D171BBA000F094FCBF
:104EA000686810F00C0F07D06868C0F38100022812
:104EB00009D16868C00306D42868800714D5206922
:104EC00001287DD110E02069B0B1C6F800A0FFF73D
:104ED00081FC074605E000BFFFF77CFCC01B0228F1
:104EE000B4D828688007F7D52868616920F0F800F1
:104EF00040EAC10028600DE0C6F80080FFF76AFCB8
:104F0000074604E0FFF766FCC01B02289ED828680D
:104F10008007F7D42078000736D5AB4FA06920B3BF
:104F2000012806D04FF4F17197A000F04DFCA06964
:104F3000D8B1C7F800A0FFF74DFC074605E058E1DF
:104F4000FFF748FCC01B02288ED8686A8007F7D597
:104F50009E484FF4FA510068B0FBF1F0009000BF9A
:104F60000098411E0091FAD20EE0C7F80080FFF7CA
:104F700031FC074605E000BFFFF72CFCC01B0228F0
:104F8000AED8686A8007F7D4207840076ED5E0680D
:104F9000002740B1012806D0052804D040F2112195
:104FA00079A000F011FCE869C00008D4E86940F07D
:104FB0008050E861E869012700F08050009000E02F
:104FC0002BE183480168C90512D4016841F480715E
:104FD0000160FFF7FFFB834606E000BFFFF7FAFB27
:104FE000A0EB0B00642891D879480068C005F5D57E
:104FF000E06801280AD008B1052811D0286A20F0FD
:1050000001002862286A20F0040002E0286A40F0CB
:1050100001002862E068A8B1FFF7DCFB83460DE0E1
:10502000286A40F004002862F0E700BFFFF7D2FBD7
:10503000A0EB0B0141F28830814285D8286A8007B5
:10504000F4D50EE0FFF7C6FB834607E0FFF7C2FB8F
:10505000A0EB0B0141F28830814291D8286A800789
:10506000F4D41FB1E86920F08050E861E0690028BD
:105070007ED0012809D0022807D040F2AF2142A0FB
:1050800000F0A2FBE069002872D06868C0F38100DC
:105090000228E0696DD0022805D0C6F86080FFF7CD
:1050A00099FB0446A8E0206A30B1484504D04FF48B
:1050B0002E7135A000F088FB606A70B3B0F5802FC8
:1050C0002BD0B0F5002F28D0B0F5402F25D0B0F56B
:1050D000801F22D0B0F5A01F1FD0B0F5C01F1CD07C
:1050E000B0F5E01F19D0B0F5001F16D0B0F5101FB5
:1050F00013D0B0F5201F10D0B0F5301F0DD0B0F593
:10510000401F0AD0B0F5501F07D0B0F5601F04D083
:1051100040F2B9211CA000F057FBC6F86080FFF7F1
:1051200059FB074605E000BFFFF754FBC01B0228F0
:105130005FD828688001F7D4206A48450FD1A0685D
:1051400038B1B0F5003F04D040F2CF210EA000F0FE
:105150003BFB6868A16820F4003008436860D4E92C
:1051600008010843696821F474110843686001E08C
:1051700055E045E0C6F860A0FFF72CFB04462EE0A2
:1051800000004242001002402E2E5C2E2E5C2E2E7D
:105190005C447269766572735C53544D33324631A8
:1051A00078785F48414C5F4472697665725C5372EF
:1051B000635C73746D3332663178785F68616C5FFD
:1051C0007263632E630000008004424200100020DE
:1051D00000700040FFF7FEFA001B022809D828687B
:1051E0008001F7D51BE000BFFFF7F4FA001B02288F
:1051F00002D90320BDE8F88F28688001F4D40EE0BE
:105200000128F7D06868226A00F48031914204D105
:10521000616A00F47010884201D00120EAE70020A2
:10522000E8E7000010B54FF0E024042809D020B1D1
:1052300040F2C911054800F0C7FA206920F00400C7
:1052400002E0206940F00400206110BD845800088D
:10525000704710B5401EB0F1807F01D3012010BD12
:105260004FF0E02460610F21601700F08EFA0020FB
:10527000A06107202061002010BD10B5FFF7E8FFF6
:1052800010BD704770B5026804461068D168536954
:1052900010F00F0F50D003F0010501F49076354364
:1052A0005DD0C20705D0CA0503D5E26B42F001020A
:1052B000E263420705D5DA0703D0E26B42F002024F
:1052C000E263820705D5DA0703D0E26B42F00402FD
:1052D000E263020705D5DA0703D0E26B42F0080269
:1052E000E263E26B002A33D0800604D5880602D53B
:1052F000204600F0C7F920684069E16BC0F38010D8
:10530000090700D428B3204600F0AEF920684169AF
:1053100049061AD5416921F040014161606BA0B195
:105320001B494163606BFEF793FF002810D0606B50
:10533000416BBDE870400847830610D58B060ED53B
:105340002046BDE8704000F09DB92046FFF799FF68
:1053500070BD2046FFF795FF0020E06370BD030697
:1053600006D50B0604D52046BDE8704000F0D5B93F
:105370004006F3D54806F1D5D168204621F040011A
:10538000D160202184F8391000F005F870BD0000CC
:105390005956000870477047FEE7FEE7FEE7704782
:1053A000704700002DE9F041D0B300211F4C0E469C
:1053B00006EB460202EB061204EB8202D26812B13F
:1053C000761C71B329E01A4F06EB460202EB061277
:1053D000396804EB8205016069608168E9604168B1
:1053E00041B9216801EB410202EB011104EB81019B
:1053F0008968491CA96005F1100300F10C014022E5
:105400001846FEF78FFE3868401C38600020206088
:10541000A868A168884200D926600020BDE8F08114
:1054200002E0FFE7082EC3D30120F7E73011002088
:105430001010002010B5FEF7C1FE0A4800214A1ED8
:105440000160C0E90212402207491030FEF76AFEEF
:10545000064C2068401C2060FFF7BCF9A06060602B
:1054600010BD00003011002044580008101000202A
:105470002DE9F041FFF7AEF93F4948608A68904254
:105480002AD03E4C8860A4F5197521682F68002643
:1054900004F10808B9420CD007EB470000EB0710F5
:1054A00005EB8001C4E9007640224046091DFEF765
:1054B00039FE606804EB8000806800280EDDFEF78E
:1054C000ABFE606804EB80018868401E88606168FC
:1054D000002801DC491C6160BDE8F0810CDAFEF7B0
:1054E00091FE606804EB80008168491C81606068FF
:1054F000F2D4401C6060EFE707EB470000EB0710B9
:1055000005EB8001C868421C09D0401EC8602968AC
:1055100001EB410202EB011105EB81010ED0666047
:105520002868402200EB400101EB001005EB8001F0
:105530004046BDE8F0411031FEF7F4BD00208E601A
:1055400000EB400101EB001105EB8101CA685AB183
:105550008A68296801EB410303EB011105EB810126
:1055600089688A4200D92860401C0828E8D3BDE831
:10557000F041FEF747BE00001010002094130020F9
:1055800010B5FFF72DF9BDE81040FFF776BE30B536
:1055900093B028216846FEF7DEFD14210AA8FEF725
:1055A000DAFD002401210F9410940804CDE90010C5
:1055B00011941294029402250491CDE907504FF4FE
:1055C000E01009906846FFF7E1FB0F20CDE90A05DE
:1055D0006802CDE90C4002210AA80E94FFF780FA78
:1055E00010200F9012940FA8FFF7CCF9FFF792FB51
:1055F0004FF47A71B0FBF1F0FFF72BFE0420FFF7B8
:1056000011FE00221146501EFFF764F913B030BDA1
:105610000D48016841F00101016041680B4A1140E9
:10562000416001680A4A11400160016821F480214B
:105630000160416821F4FE0141604FF41F01816067
:105640000449C00308607047001002400000FFF8E2
:10565000FFFFF6FE08ED00E010B5406A0021C185AD
:10566000C184FFF70EFE10BD0168CA6822F4907273
:10567000CA6001684A6922F001024A61202180F86B
:105680003A10704710B590F83A10222901D0022044
:1056900010BD8168B1F5805F11D0016900290168F2
:1056A0001FD0496801F07F03816A4A1C82620B7037
:1056B000C18D491E0904090CC18518D02BE002696F
:1056C000816A002A0268526805D0D2B20A80816AD3
:1056D000491C8162ECE7C2F308020A80816A891CD6
:1056E000F7E74A68816A4B1C83620A70E0E7016849
:1056F000CA6822F02002CA600168CA6822F4807277
:10570000CA6001684A6922F001024A61202180F8DA
:105710003A10FFF73FFE002010BD90F83910212904
:1057200001D0022070478168B1F5805F016A0BD01B
:105730004A1C0262026809785160C18C491E090442
:10574000090CC1840ED017E009880268C1F3080172
:10575000516001690029016A02D0491C0162ECE72D
:10576000891CFBE70168CA6822F08002CA600068F1
:10577000C16841F04001C160002070470148FFF757
:1057800081BD000068100020FEE70907090E00280F
:1057900004DB00F1E02080F80014704700F00F00F7
:1057A00000F1E02080F8141D704702E008C8121FC5
:1057B00008C1002AFAD170477047002001E001C1FA
:1057C000121F002AFBD17047FEE70000054904487C
:1057D0000860FFF70DF8FFF7DAFEFEF7D9FCFEE7E9
:1057E0000040000808ED00E000000000000000009C
:1057F0000102030406070809000000000000000081
:10580000FFFFFFFF32000000CEFFFFFF320000006D
:10581000C6F8FFFF000000000000000000000000CC
:105820000000000000000000000000000000000078
:105830000000000000000000000000000000000068
:1058400000000000000000700000000000000000E8
:105850000000000000000000000000000000000048
:105860000000000000000000000000000000000038
:105870000000000000000000000000000000000028
:10588000000000002E2E5C2E2E5C2E2E5C447269D1
:10589000766572735C53544D3332463178785F4885
:1058A000414C5F4472697665725C5372635C7374D9
:1058B0006D3332663178785F68616C5F636F7274E4
:1058C00065782E63000000002E2E5C2E2E5C2E2E9E
:1058D0005C447269766572735C53544D3332463161
:1058E00078785F48414C5F4472697665725C5372A8
:1058F000635C73746D3332663178785F68616C5FB6
:105900007263635F65782E63000000002C59000805
:10591000001000201C000000AA5700084859000889
:105920001C100020C4070000BA5700080024F4002F
:105930000100000010000000000000000000000056
:0859400000000000000000005F
:04000005080040EDC2
:00000001FF
