:020000040800F2
:10000000080D0020010100089F270008592700085B
:100010009D270008310C00082D2D0008000000006D
:10002000000000000000000000000000612800083F
:10003000910C000800000000A12700084D290008CD
:100040001B0100081B0100081B0100081B01000820
:100050001B0100081B0100081B0100081B01000810
:100060001B0100081B0100081B0100081B01000800
:100070001B0100081B010008790C0008850C000812
:100080001B0100081B0100081B0100081B010008E0
:100090001B0100081B0100081B0100081B010008D0
:1000A0001B0100081B0100081B0100081B010008C0
:1000B0001B0100081B0100081B0100081B010008B0
:1000C0001B0100081B0100081B0100081B010008A0
:1000D0001B010008012D00081B0100081B0100087E
:1000E0001B0100081B0100081B010008DFF80CD0F1
:1000F00000F04CF8004800474D340008080D00207F
:100100000648804706480047FEE7FEE7FEE7FEE7B1
:10011000FEE7FEE7FEE7FEE7FEE7FEE7DD29000873
:10012000ED000008202A04DB203A21FA02F0002129
:10013000704721FA02F3D040C2F1200291400843F7
:100140001946704740EA01039B0703D009E008C93C
:10015000121F08C0042AFAD203E011F8013B00F88C
:10016000013B521EF9D27047D2B201E000F8012BD8
:10017000491EFBD270470022F6E710B513460A4627
:1001800004461946FFF7F0FF204610BD064C074D08
:1001900006E0E06840F0010394E807009847103457
:1001A000AC42F6D3FFF7A6FF4435000864350008DB
:1001B0000EB50020009001900290684600F03AFDD4
:1001C00000F09EF800F008F900F09CF800F0CAF882
:1001D00000F0F6F8192000F0F7FF00F0E7F819201A
:1001E00000F0F2FF3E48016808683E4C401C19D000
:1001F0000868A04268D100206A46091D52F82030E4
:1002000051F8204083F0A533A34258D000F0D8F82D
:100210004FF47A7000F0D8FF00F0C8F8192000F011
:10022000D3FFFEE701F02CF9224600232E490220DD
:1002300001F09AF800982C4980F0A5320023091D9E
:10024000022001F091F80198274980F0A53200239F
:100250000831022001F088F80298234980F0A53285
:1002600000230C31022001F07FF81F491F4A0023B0
:100270001031022001F078F81B491D4A0023143187
:10028000022001F071F818491A4A0023183102209F
:1002900001F06AF81449184A00231C31022001F0C9
:1002A00063F81149154A00232031022001F05CF85F
:1002B00001F050F8012000F087FF03F005F8401C22
:1002C00003289BD300F01CF900F07AF84FF4FA6091
:1002D00000F07AFF00F06AF8192000F075FFFEE7E1
:1002E00010000020AB89EFCD002F00080B8FF7E93D
:1002F000FD15F2437386E677823B6CD8000100AAB5
:10030000002070470F4810B5816986B041F00401A4
:1003100081618069002100F0040004900120CDE992
:10032000000102900220084C03906946204601F02B
:10033000BBF801221146204601F078FA06B00020F1
:1003400010BD0000001002400008014010B501215E
:10035000034801F03DFA08B1002010BD012010BD96
:100360000008014030B50F4885B0816941F01001A7
:10037000816180694FF4005400F010000490012066
:10038000CDE9004002900220074D039069462846BF
:1003900001F08AF801222146284601F047FA05B00B
:1003A000002030BD001002400010014010B50122B5
:1003B0005103024801F03AFA002010BD001001403C
:1003C00010B500224FF40051024801F02FFA00202E
:1003D00010BD0000001001402DE9F041434D86B0F2
:1003E000A86940F00400A861A86901AA00F004000F
:1003F00004906815009002200126002482E8510034
:100400003B4F6946384601F04FF82815CDE9000406
:10041000CDE902466946384601F046F8686940F081
:10042000010068616869344F00F0010004903148B0
:10043000C7E900044FF08008C7E902483C617C61CD
:10044000BC613846FC6100F005FEA7F1840600227D
:10045000776306210F207E6201F0B6FA0F2001F0CB
:100460009DFA686940F0010068616869443F00F0E6
:10047000010004901F48143801C71020A7E811019B
:1004800006F1400047F810497C61BC61FC6100F056
:10049000E1FD3763002206210E207E6201F094FA0E
:1004A0000E2001F07BFAA86940F48040A861A86999
:1004B00000F480400490114830604FF4E130C6E908
:1004C00001040C20F460C6E90440B4613046F461D4
:1004D00001F0FAFF00220621252001F075FA2520FF
:1004E00001F05CFA06B00020BDE8F0810010024087
:1004F0000008014058000240C404002000380140B8
:10050000F8B5FFF75DFF192000F05EFEFFF74EFF24
:10051000192000F059FE51A002F0AEF950A002F0EF
:10052000ABF900258DF8005040F6B833012269463A
:10053000554802F056F89DF80000544C544E43289C
:1005400002D0FFF703FF08B17068046070680068AC
:10055000A04257D100F0C0FB40A002F08DF94DA0A1
:1005600002F08AF956A002F087F960A002F084F93F
:1005700048A002F081F939A002F07EF9424C4FF018
:10058000FF3665A002F078F96EA002F075F978A048
:1005900002F072F981A002F06FF98BA002F06CF901
:1005A0003CA002F069F993A002F066F98DF80050C2
:1005B00020684068334601226946334802F011F84A
:1005C0009DF8000002F04EF924A002F055F99DF8C4
:1005D000000030280BD031280BD032280FD0332820
:1005E00018D021281BD084A002F046F9C9E787A0C3
:1005F000FAE78BA002F040F900F054F9C1E78EA0B1
:1006000002F03AF993480168934A1140B1F1005F52
:100610001AD01EE091A002F02FF902F055FE2068DA
:1006200040688DF800504FF47A73012269461648ED
:1006300001F0D7FF9DF800002428A2D18DA002F080
:100640001BF900F08DFA9CE74168006880F3088888
:1006500088478DA002F010F9F8BD00000D0A0000D7
:100660004170706C69636174696F6E2077696C6C3E
:1006700020737461727420696E2033207365636F18
:100680006E64732E0D0A000040040020AB89EFCD8C
:10069000100000203D3D3D3D3D3D3D3D3D3D3D3D4E
:1006A0003D3D3D3D3D3D3D3D3D3D3D3D3D3D3D3D7A
:1006B0003D3D3D3D3D3D3D3D3D3D0D0A00000000C1
:1006C0003D2020202028432920434F50595249479C
:1006D0004854204C6F6F70456469736F6E20202002
:1006E00020202020203D0D0A000000003D20202079
:1006F0002057656C636F6D6520426F6F746C6F611E
:100700006465722050726F6772616D6D696E6720EB
:10071000203D0D0A000000003D3D3D3D3D3D3D3D7D
:100720003D3D3D3D3D204D61696E204D656E75201E
:100730003D3D3D3D3D3D3D3D3D3D3D3D3D3D0D0A4C
:10074000000000003D3E426F61726420496E666F9A
:10075000726D6174696F6E202D2D2D2D2D2D2D2D17
:100760002D2D2D2D2D2D2030203D0D0A00000000B7
:100770003D3E446F776E6C6F616420696D616765A3
:1007800020746F20466C617368202D2D2D2D2D2D2A
:100790002D2D2031203D0D0A000000003D3E457802
:1007A0006563757465206170706C69636174696FED
:1007B0006E202D2D2D2D2D2D2D2D2D2D2D2D20323D
:1007C000203D0D0A000000003D3E4578697420611F
:1007D0006E64205265626F6F74202D2D2D2D2D2D8E
:1007E0002D2D2D2D2D2D2D2D2D2D2033203D0D0A80
:1007F000000000003E3E2000496E76616C69642076
:10080000496E70757420210D0A000000426F6172FC
:100810006420496E666F2056302E312E300D0A004E
:10082000456E74657220446F776E6C6F6164204D05
:100830006F64650D0A000000457865637574652076
:100840006170706C69636174696F6E2E2E2E0D0A73
:1008500000000000004000080000FE2F4578697489
:1008600020616E64205265626F6F74202E2E2E0DF3
:100870000A000000456E7465722055706C6F6164EB
:10088000204D6F64650D0A004170706C696361747E
:10089000696F6E204C6F6164204661696C656421EC
:1008A0000D0A000070B59EB0002409940A940B94C0
:1008B0002BA01C9401F0E0FF384D1CAA0CA928467F
:1008C00002F036FA60B1052843D0042843D002284C
:1008D00043D033A001F0D0FF01241EB0204670BDEC
:1008E00039A001F0C9FF3FA001F0C6FF0CA801F03C
:1008F000C3FF09A81C9901F031FF3CA001F0BCFF27
:100900003BA001F0B9FF09A801F0B6FF3AA001F041
:10091000B3FF3CA001F0B0FF2022294601A8FFF759
:1009200011FC3E4E6FF0070101A83268103202F050
:10093000E5FC31680198096A884206D11749029A94
:1009400028462031920000F09BF835A001F094FF7A
:10095000C3E735A0BEE73BA0BCE742A0BAE7000072
:1009600057616974696E6720666F722074686520CC
:1009700066696C6520746F2062652073656E7420F3
:100980002E2E2E2028707265737320276127207405
:100990006F2061626F7274290A0D00000040000828
:1009A0004572726F723A204661696C656420746F9B
:1009B0002072656365697665207468652066696C78
:1009C00065210D0A00000000446F776E6C6F616452
:1009D000205375636365737366756C6C79210D0ABA
:1009E000000000004E616D653A2000000D0A000015
:1009F00053697A653A2000002042797465730D0AC4
:100A00000000000050726570617265204170706C6A
:100A100069636174696F6E2E2E2E00001000002035
:100A20004F4B0D0A000000004572726F723A204968
:100A30006D6167652073697A65206C696D697421E1
:100A40000D0A00004572726F723A2056657269662F
:100A500069636174696F6E206661696C6564210DFC
:100A60000A0000004572726F723A2041626F727420
:100A7000656420627920757365722E0D0A0000008E
:100A80002DE9F74FADF58B6D0DF58B60904603C8E2
:100A9000084340EA0800800704D001200DF2644DAD
:100AA000BDE8F08F4FF0000B00F0EAFC00244FE0AF
:100AB00004F58060404502D24FF4806001E0A8EB6D
:100AC00004008146DDF85C044A4601196846FFF7D8
:100AD00039FB0020CDF81404DDF858040DF24C4128
:100AE00007190120CDF82004CDF81C740DF2144034
:100AF00000F07CFB08BB002626E0684600EB4611B0
:100B000020220DF22440FFF71DFB14486FF007016F
:100B100002680DF22440103202F0F0FB00250DF2C5
:100B2000244A00BF05EBC60007EB80015AF82520D8
:100B30000023022000F018FC10B14FF0010B09E077
:100B40006D1C082DEED3761CB6EB591FD5D34C4443
:100B50004445ADD300F0FEFB58469FE7100000204F
:100B600038B500248DF800400FA001F085FE631E0B
:100B700001226946134801F034FD9DF80000432826
:100B800010D14FF4404210A1154802F039FA8DF807
:100B9000000020B113A001F06FFE012402E01CA0B0
:100BA00001F06AFE204638BD0A0A0D53656C656384
:100BB0007420526563656976652046696C650A0D27
:100BC000000000004004002055706C6F6164656493
:100BD000466C617368496D6167652E62696E0000DD
:100BE000004000080A0D4572726F72204F636375F2
:100BF00072726564207768696C65205472616E73E7
:100C00006D697474696E672046696C650A0D000031
:100C10000A0D46696C652075706C6F6164656420AF
:100C20007375636365737366756C6C79200A0D0068
:100C3000FEE700000549096801600449091D0968CB
:100C4000416002490831096881607047E8F7FF1F79
:100C500030B504460020651804E000BF14F8011BFD
:100C600002F054F8AC42F9D3002102F04FF8BDE88D
:100C70003040002102F04AB8014800F041B90000BC
:100C800080040020014800F03BB90000C4040020AB
:100C9000704770B586B000250E460446049500F0F6
:100CA000EFFB301B82054FF0010102D001EB9020D9
:100CB00000E0800A03900095CDE9011404A968467C
:100CC00000F094FA044600F045FB14B1012006B090
:100CD00070BD0020FBE7000010B500F0D1FB034918
:100CE0003420C860BDE8104000F034BB0020024052
:100CF0002DE9F041164688460546002400F0C0FB69
:100D00000E4F13E058F8242000232946022000F05B
:100D10002BFB10B10320BDE8F08158F824002968AE
:100D2000814201D00220F6E7641C2D1DB44201D29D
:100D3000BD42E7D900F00EFB0020ECE7FCFF000805
:100D400010B5012804D040F25621084802F0D2F82C
:100D500007490020C8610748016941F004010161A9
:100D6000016941F04001016110BD0000BC34000880
:100D70001800002000200240064A0021D1610649E7
:100D80000A6942F002020A614861086940F04000C5
:100D9000086170471800002000200240044B002228
:100DA000DA61044A136943F001031361018070475B
:100DB000180000200020024014480022C168CB0621
:100DC000134904D5CA6942F00202CA611022C368FD
:100DD0005B0705D5CB6943F00103CB6142F0040208
:100DE000C369DB0707D0CB6943F00403CB61C1695A
:100DF00021F00101C161A2F58071013901D0C26009
:100E00007047C16921F00101C161704700200240B3
:100E10001800002070B5054600F040FD0646114C54
:100E200009E0681C07D025B100F038FD801BA842FE
:100E300001D9032070BDE068C007F2D1E0688006E8
:100E400001D52020E060E068C00605D4E069C00755
:100E500002D1E068400703D5FFF7AEFF012070BD67
:100E6000002070BD0020024010B590F82110002431
:100E7000022903D00421816301243DE001680A684E
:100E800022F00E020A6001680A6822F001020A607C
:100E90001A4A0168914201D1012121E0174A143216
:100EA000914201D110211BE0144A2832914201D114
:100EB000891515E0114A3C32914201D189140FE0A5
:100EC0000E4A5032914202D14FF4803108E00B4A71
:100ED0006432914202D14FF4801101E04FF08071F1
:100EE000064A083A5160012180F82110002180F85B
:100EF0002010416B01B18847204610BD0800024018
:100F00002DE9F05FC16B0C6801680B68D0F840C038
:100F1000042202FA0CF2494DDFF824A1494E4A4F4F
:100F2000DFF828B1DFF828E122422CD05A072AD571
:100F30000A68920603D40A6822F004020A60016873
:100F4000A94201D1042219E0514501D1402215E006
:100F5000B14202D14FF4806210E0B94202D14FF4A5
:100F600080420BE0594502D14FF4802206E07145E2
:100F700002D14FF4800201E04FF080622F4908391E
:100F80004A60C16A3BE04FF0020808FA0CF818EA20
:100F9000040F4FF000094FF0010235D05FEA83786B
:100FA00032D50B689B0605D40B6823F00A030B604F
:100FB00080F821200168A94201D1022219E051459F
:100FC00001D1202215E0B14202D14FF4007210E0AD
:100FD000B94202D14FF400520BE0594502D14FF40F
:100FE000003206E0714502D14FF4001201E04FF0EB
:100FF0000072124908394A6080F82090816A0029FD
:101000001AD0BDE8F05F0847082505FA0CF525421F
:1010100012D01B0710D50B6823F00E030B6090F85D
:101020004010C36B02FA01F15960826380F82120FD
:1010300080F82090016BE2E7BDE8F09F08000240D5
:101040001C000240300002404400024058000240B0
:101050006C00024070B504007ED04A492068884286
:101060001BD048491431884217D04649283188425C
:1010700013D044493C3188420FD042495031884214
:101080000BD040496431884207D03E4978318842CC
:1010900003D09A213CA001F02DFF606840B11028D8
:1010A00006D0B0F5804F03D09B2137A001F022FF7E
:1010B000A068402804D018B19C2133A001F01AFF89
:1010C000E068802804D018B19D212FA001F012FF04
:1010D000206948B1B0F5807F06D0B0F5007F03D01D
:1010E0009E2129A001F006FF606948B1B0F5806F2C
:1010F00006D0B0F5006F03D09F2123A001F0FAFEC7
:10110000A06928B1202803D0A0211FA001F0F2FE81
:10111000E06960B1B0F5805F09D0B0F5005F06D03E
:10112000B0F5405F03D0A12117A001F0E3FE04CC8D
:101130001448142140421044B0FBF1F08000E063F9
:1011400010480838A06302206077116843F6F070F9
:101150008143D4E9000300E012E01843D4E90235EA
:101160002B4318432369184363691843A369184341
:10117000084310600020606301216177207770BD13
:10118000012070BD080002402E2E5C2E2E5C2E2EFB
:101190005C447269766572735C53544D33324631E8
:1011A00078785F48414C5F4472697665725C53722F
:1011B000635C73746D3332663178785F68616C5F3D
:1011C000646D612E6300000070B5044600F066FB9C
:1011D0000546601C02D004480078044400F05EFB21
:1011E000401BA042FAD370BD040000202DE9F05F3F
:1011F000044650480F460126017E012943D00121B3
:1012000082460176DFF83081206840B102283DD067
:10121000A8214A4801F06EFE2068022836D0A06856
:10122000DFF81CB1DFF81C914FF0FF35B0F1006F13
:101230000AD3B9F8001080293CD0402944D0202995
:101240004CD0414988420BD9E9213C4801F052FE7B
:10125000B9F8000080282FD0402838D0202840D06E
:10126000D4E9020105EB812101443748814203D9C9
:10127000EA21324801F03EFE4CF250394846FFF771
:10128000C9FDA8B351E00220BDE8F09F4CF25034F4
:101290002046FFF7BFFD60BB0120FFF751FD204650
:1012A000FFF7B8FDD8F81010064621F00401C8F881
:1012B00010103AE05845C7D8D4E9020105EB812166
:1012C00001445945D8D9D3E720498842BCD8D4E94C
:1012D000020105EB812101441C48C7E71C498842F3
:1012E000B2D8D4E9020105EB812101441848BDE7D9
:1012F00000E01AE03D60A56811E02846FFF73CFDDC
:101300004846FFF787FDD8F81010060021F00201CB
:10131000C8F8101001D03D6007E005F58065D4E9FC
:10132000020100EB8120A842E7D800218AF81810BA
:101330003046A9E71800002000200240BC34000815
:10134000FFFF0108E0F7FF1FFF3F0008FFFF000855
:10135000FF7F00080348016941F08001016100201E
:1013600070470000002002402DE9F05F06462D483E
:101370000D460024017E17469846012925D00121FB
:1013800081460176012E07D0022E05D0032E03D010
:10139000B22125A001F0AEFDB5F1006F0AD33248AD
:1013A0000088802814D0402814D0202814D02F483A
:1013B000854203D9B3211CA001F09CFD4CF2503AA8
:1013C0005046FFF727FD48B128E00220BDE8F09F16
:1013D0002748EDE72748EBE72748E9E7012E02D049
:1013E000022E00D00426D346DFF890A02201414609
:1013F0003846FEF797FE81B205EB4400FFF7CEFCBE
:101400005846FFF707FDDAF8102022F00102CAF86B
:10141000102018B9641CE4B2B442E7D3002289F862
:101420001820D3E7180000202E2E5C2E2E5C2E2EC6
:101430005C447269766572735C53544D3332463145
:1014400078785F48414C5F4472697665725C53728C
:10145000635C73746D3332663178785F68616C5F9A
:10146000666C6173682E6300E0F7FF1FFF3F0008A2
:10147000FFFF0108FFFF0008FF7F00080020024077
:10148000064900200A69120607D5054A4A60054A3E
:101490004A600969090600D5012070470020024012
:1014A00023016745AB89EFCD2DE9F84F0026DFF822
:1014B0009CB20D460446B14658450FD0A44884421C
:1014C0000CD0A448844209D0A348844206D0A34843
:1014D000844203D0BD21A2A001F00CFD28680104C4
:1014E000090C01D0000C03D0BE219DA001F002FD2B
:1014F0006868DFF8ACA200281ED00128FCD01128B3
:10150000FAD00228F8D01228F6D05045F4D0A549D8
:101510008842F1D0A4498842EED0A4498842EBD059
:10152000A3498842E8D0A3498842E5D00328E3D004
:10153000BF218BA001F0DEFC00E1012000FA06F8DB
:1015400007EA080747456FD15C450FD080488442C1
:101550000CD08048844209D07F48844206D07F481E
:10156000844203D0CD217EA001F0C4FC6868A0EBCA
:101570000A02504559D00EDC032875D006DC00283D
:1015800053D0012819D0022869D131E0112821D087
:10159000122864D13AE0B2F5881F46D006DCB2F5D5
:1015A000803F42D0B2F5801F59D13EE0B2F5001F16
:1015B0003BD0B2F5041F52D137E0E868022807D0CB
:1015C000012805D0032803D0D52165A001F092FCA5
:1015D000E8683EE0E868022807D0012805D0032823
:1015E00003D0DC215EA001F085FCE868001D30E03E
:1015F000E868022807D0012805D0032803D0E3219A
:1016000057A001F077FCE868083022E0E86802287B
:1016100007D0012805D0032803D0EA2150A001F00B
:1016200069FCE8680C3014E087E0A86880B1012804
:1016300011D0022807D0F72149A001F05BFCA8686F
:1016400030B1012807D04FF00809C4F8148006E033
:101650000420814603E04FF00809C4F81080FF2FF2
:1016600005D8214605E0FFE74FF00000F1E704F15F
:1016700004014FEA860001D9A0F120000B684FF069
:101680000F0202FA00FC23EA0C0309FA00FC43EA09
:101690000C030B606868C0004FD54748816941F072
:1016A00001018161806926F0030100F001000090D2
:1016B00042480B189868B1074FEA117C02FA0CF205
:1016C00090435C4501D100210FE021498C4201D1BA
:1016D00001210AE01F498C4201D1022105E01E4987
:1016E0008C4201D1032100E0042101FA0CF10143F5
:1016F00099606868C0033248016801D5394300E049
:10170000B9430160686880032E48016801D53943F8
:1017100000E0B94301606868C0022B48016801D548
:10172000394300E0B94301606868800227480168D6
:1017300001D5394300E0B9430160761C2F6837FAC0
:1017400006F07FF4FAAEBDE8F88F00000008014013
:10175000000C01400010014000140140001801403D
:101760002E2E5C2E2E5C2E2E5C4472697665727372
:101770005C53544D3332463178785F48414C5F4476
:1017800072697665725C5372635C73746D33326632
:101790003178785F68616C5F6770696F2E630000F5
:1017A0000000111000002110000031100000121084
:1017B0000000221000003210001002400000014022
:1017C0000004014004040140080401400C040140ED
:1017D00070B50C00054604D14FF4DA7103A001F096
:1017E00089FBA868204000D0012070BD2E2E5C2E01
:1017F0002E5C2E2E5C447269766572735C53544D78
:101800003332463178785F48414C5F44726976657F
:10181000725C5372635C73746D3332663178785FD7
:1018200068616C5F6770696F2E63000070B5154664
:101830000C00064604D14FF4EA7108A001F05AFBEF
:1018400045B1012D04D040F2D51104A001F052FBA6
:10185000346170BD2004306170BD00002E2E5C2EFE
:101860002E5C2E2E5C447269766572735C53544D07
:101870003332463178785F48414C5F44726976650F
:10188000725C5372635C73746D3332663178785F67
:1018900068616C5F6770696F2E6300000148806843
:1018A000704700000400002002488168027811445B
:1018B0008160704704000020074810B5016841F0BE
:1018C00010010160032000F0B3F8002000F006F8DA
:1018D00000F024F8002010BD0020024070B50D4D2E
:1018E00004464FF47A712878B1FBF0F00A49096890
:1018F000B1FBF0F000F047FD48B9102C07D20022F0
:101900002146501E00F060F800206C6070BD012080
:1019100070BD000004000020000000201D4808B534
:10192000816941F001018161806900F0010000904E
:10193000032000F07DF8002211466FF00B0000F04C
:1019400043F8002211466FF00A0000F03DF8002233
:1019500011466FF0090000F037F800221146501FC1
:1019600000F032F800221146101F00F02DF800227E
:101970001146901E00F028F800221146501E00F07B
:1019800023F80548416821F0E06141F000714160B1
:1019900008BD0000001002400000014010B5040026
:1019A00003D5BE21074801F0A5FA002C09DB04F09D
:1019B0001F01012088406109890001F1E021C1F87F
:1019C000000110BD7834000870B515460C46064677
:1019D000102A03D3AA21144801F08CFA102C03D347
:1019E000AB21114801F086FA10480068C0F30223C9
:1019F000C3F107022046042A00D90422191D072931
:101A000001D2002300E0DB1E012404FA02F1491E8A
:101A1000014099409C40641E2C4021433046BDE863
:101A2000704001F04FBA0000783400080CED00E07F
:101A300010B5044607280BD0062C09D0052C07D07A
:101A4000042C05D0032C03D09221084801F052FA4F
:101A5000074904F0070208684FF6FF03184040EA00
:101A60000220044A1043086010BD000078340008CA
:101A70000CED00E00000FA052DE9F843044600688B
:101A8000504DC1070AD181076FD4C0067ED46C21A6
:101A90004D4801F02FFA2078C00763D0606860B12C
:101AA000B0F5807F09D0B0F5007F06D0B0F5407F5B
:101AB00003D07221444801F01DFAE8690026C000F5
:101AC00008D4E86940F08050E861E869012600F038
:101AD000805000903D480168C90512D401688046D5
:101AE00041F480710160FFF7D9FE074605E000BFB1
:101AF000FFF7D4FEC01B642823D8D8F80000C00527
:101B0000F6D5286A10F4407021D0A18801F4407104
:101B100081421CD0286A2E49012220F440700A60BC
:101B200000220A602862C00711D0FFF7B7FE0746FF
:101B300041F2883808E000BFFFF7B0FEC11B414505
:101B400002D90320BDE8F883286A8007F4D5286A03
:101B5000616820F44070084328621EB1E86920F0F3
:101B60008050E8612078800716D5A06860B1B0F594
:101B7000804F09D0B0F5004F06D0B0F5404F03D0EC
:101B8000B921114801F0B6F9686800E007E0A168E2
:101B900020F44040084368602078C0060FD5E06814
:101BA000B0F5800F05D020B140F21511064801F0C4
:101BB000A1F96868E16820F48000084368600020AB
:101BC000C0E700000010024000350008007000402F
:101BD000400442422DE9F0470F46050078D02868BE
:101BE000C1070AD1810708D4410706D4000704D4ED
:101BF0004FF44E716FA001F07DF947B1012F06D06F
:101C0000022F04D040F239316AA001F073F9794E05
:101C1000306800F00700B84209D2306820F00700B1
:101C200038433060306800F00700B84277D1286848
:101C3000714C810729D5400703D5606840F4E06006
:101C400060602878000703D5606840F460506060E9
:101C5000A868A0B1802812D0902810D0A0280ED05B
:101C6000B0280CD0C0280AD0D02808D0E02806D050
:101C7000F02804D040F25F314EA001F03BF96068DB
:101C8000A96820F0F000084360602878C00737D0CA
:101C9000686868B101281CD002281DD040F2663166
:101CA00044A001F027F96868012812D0022813D057
:101CB00020688007002832DA6068696820F0030035
:101CC00008436060FFF7EAFD804641F2883910E082
:101CD00025E020688003EDE720688001EAE700BF87
:101CE000FFF7DCFDA0EB0801494502D90320BDE860
:101CF000F0876068696800F00C00B0EB810FEFD1ED
:101D0000306800F00700B8420BD9306820F00700B7
:101D100038433060306800F00700B84201D001203D
:101D2000E5E728784FF4806640074FF4A0674FF44A
:101D3000C0684FF4E06914D5E86860B1B0420AD0D9
:101D4000B84208D0404506D0484504D04FF46971E8
:101D500018A001F0CFF86068E96820F4E06008435B
:101D600060602878000715D5286960B1B0420AD0B4
:101D7000B84208D0404506D0484504D040F2AB31C7
:101D80000CA001F0B7F86068296920F4605040EABF
:101D9000C100606000F05EF86168184AC1F3031189
:101DA000515CC8401649086016480068FFF796FD68
:101DB00000209CE72E2E5C2E2E5C2E2E5C44726939
:101DC000766572735C53544D3332463178785F4890
:101DD000414C5F4472697665725C5372635C7374E4
:101DE0006D3332663178785F68616C5F7263632E41
:101DF0006300000000200240001002406834000828
:101E00000000002008000020014800687047000022
:101E1000000000200448054900684968044AC1F3ED
:101E20000221515CC84070470000002000100240B1
:101E3000F62E00080448054900684968044AC1F3C1
:101E4000C221515CC84070470000002000100240D1
:101E5000F62E000812A185B00FC98DE80F0014A05E
:101E6000144A006804905168134801F00C03042BD5
:101E700010D0082B0ED1C1F38343C9031DF8030012
:101E80000AD5516804AAC1F34041515C0A4A504343
:101E9000B0FBF1F005B0704708494843FAE700008D
:101EA00002030405060708090A0B0C0D0E0F10109B
:101EB000010200000010024000127A0000093D00FB
:101EC0002DE9F84F04007DD0FA4EFB4D20684FF00D
:101ED000010A4FF000084FF4803960B1C1070DD1FD
:101EE000810762D401076ED440076DD440F26711B8
:101EF000F2A000F0FFFF2078C00753D060684FF4D5
:101F0000A02740B1484506D0B84204D040F26D1138
:101F1000EAA000F0EFFF6868C0F38100012807D055
:101F20006868C0F38100022809D16868C00306D53B
:101F30002868800336D560680028C4D032E0606825
:101F4000484503D1286840F4803009E008B1B84220
:101F50000DD0286820F480302860286820F4802084
:101F60002860606888B1FFF799FC074609E0286897
:101F700040F480202860E5E7FFF790FCC01B642850
:101F800077D828688003F7D50CE0FFF787FC074671
:101F900005E000BFFFF782FCC01B6428F0D828686A
:101FA0008003F7D4207880074ED5206930B101280E
:101FB00004D040F2A111C1A000F09CFF60691F286D
:101FC00008D902E096E042E07BE04FF4D171BBA07B
:101FD00000F090FF686810F00C0F07D06868C0F33D
:101FE0008100022809D16868C00306D428688007E8
:101FF00014D5206901287DD110E02069B0B1C6F860
:1020000000A0FFF74BFC074605E000BFFFF746FCCA
:10201000C01B0228B4D828688007F7D528686169F2
:1020200020F0F80040EAC10028600DE0C6F800800A
:10203000FFF734FC074604E0FFF730FCC01B022822
:102040009ED828688007F7D42078000736D5AB4F94
:10205000A06920B3012806D04FF4F17197A000F0D9
:1020600049FFA069D8B1C7F800A0FFF717FC0746E1
:1020700005E058E1FFF712FCC01B02288ED8686A01
:102080008007F7D59E484FF4FA510068B0FBF1F095
:10209000009000BF0098411E0091FAD20EE0C7F8F0
:1020A0000080FFF7FBFB074605E000BFFFF7F6FBEC
:1020B000C01B0228AED8686A8007F7D42078400792
:1020C0006ED5E068002740B1012806D0052804D06D
:1020D00040F2112179A000F00DFFE869C00008D49A
:1020E000E86940F08050E861E869012700F080501D
:1020F000009000E02BE183480168C90512D4016813
:1021000041F480710160FFF7C9FB834606E000BF20
:10211000FFF7C4FBA0EB0B00642891D87948006856
:10212000C005F5D5E06801280AD008B1052811D00E
:10213000286A20F001002862286A20F0040002E0EA
:10214000286A40F001002862E068A8B1FFF7A6FB0A
:1021500083460DE0286A40F004002862F0E700BFE3
:10216000FFF79CFBA0EB0B0141F28830814285D840
:10217000286A8007F4D50EE0FFF790FB834607E05E
:10218000FFF78CFBA0EB0B0141F28830814291D824
:10219000286A8007F4D41FB1E86920F08050E86114
:1021A000E06900287ED0012809D0022807D040F23B
:1021B000AF2142A000F09EFEE069002872D068685E
:1021C000C0F381000228E0696DD0022805D0C6F86E
:1021D0006080FFF763FB0446A8E0206A30B1484501
:1021E00004D04FF42E7135A000F084FE606A70B305
:1021F000B0F5802F2BD0B0F5002F28D0B0F5402FB0
:1022000025D0B0F5801F22D0B0F5A01F1FD0B0F5AB
:10221000C01F1CD0B0F5E01F19D0B0F5001F16D0BC
:10222000B0F5101F13D0B0F5201F10D0B0F5301F3F
:102230000DD0B0F5401F0AD0B0F5501F07D0B0F553
:10224000601F04D040F2B9211CA000F053FEC6F874
:102250006080FFF723FB074605E000BFFFF71EFB8A
:10226000C01B02285FD828688001F7D4206A48453F
:102270000FD1A06838B1B0F5003F04D040F2CF21B3
:102280000EA000F037FE6868A16820F40030084313
:102290006860D4E908010843696821F474110843AF
:1022A000686001E055E045E0C6F860A0FFF7F6FA87
:1022B00004462EE000004242001002402E2E5C2E0A
:1022C0002E5C2E2E5C447269766572735C53544D9D
:1022D0003332463178785F48414C5F4472697665A5
:1022E000725C5372635C73746D3332663178785FFD
:1022F00068616C5F7263632E630000008004424279
:102300000000002000700040FFF7C8FA001B022800
:1023100009D828688001F7D51BE000BFFFF7BEFA97
:10232000001B022802D90320BDE8F88F286880012D
:10233000F4D40EE00128F7D06868226A00F48031F6
:10234000914204D1616A00F47010884201D00120EA
:10235000EAE70020E8E7000010B54FF0E024042889
:1023600009D020B140F2C911054800F0C3FD206931
:1023700020F0040002E0206940F00400206110BD5C
:1023800078340008704710B5401EB0F1807F01D34B
:10239000012010BD4FF0E02460610F21601700F0B4
:1023A00091FD0020A06107202061002010BD10B524
:1023B000FFF7E8FF10BD704770B50268044610686B
:1023C000D168536910F00F0F50D003F0010501F4EC
:1023D000907635435DD0C20705D0CA0503D5E26BC0
:1023E00042F00102E263420705D5DA0703D0E26B4F
:1023F00042F00202E263820705D5DA0703D0E26BFE
:1024000042F00402E263020705D5DA0703D0E26B6B
:1024100042F00802E263E26B002A33D0800604D562
:10242000880602D5204600F013FB20684069E16B66
:10243000C0F38010090700D428B3204600F0FAFA50
:102440002068416949061AD5416921F0400141617E
:10245000606BA0B11B494163606BFEF705FD00286E
:1024600010D0606B416BBDE870400847830610D503
:102470008B060ED52046BDE8704000F0E9BA204634
:10248000FFF799FF70BD2046FFF795FF0020E0633E
:1024900070BD030606D50B0604D52046BDE8704086
:1024A00000F0CABB4006F3D54806F1D5D1682046F6
:1024B00021F04001D160202184F8391000F04BF95F
:1024C00070BD0000252A000870B5040020D0A06966
:1024D00030490028304A314B20681BD088420AD04E
:1024E000904208D0984206D04FF4A3712CA000F07F
:1024F00001FDA069C8B1A069B0F5807F15D0B0F525
:10250000007F12D0B0F5407F0FD040F2471109E0B4
:10251000012070BD884208D0904206D0984204D075
:1025200040F24B111EA000F0E5FCA06838B1B0F5F8
:10253000805F04D040F24D1119A000F0DBFC94F84C
:102540003900002520B984F83850204600F048F8BA
:10255000242084F839002068C16821F40051C1604A
:10256000204600F0C1FA2068016921F49041016120
:102570002068416921F02A0141612068C16841F465
:102580000051C160E563202084F8390084F83A00E6
:10259000002070BD00380140004400400048004069
:1025A0002E2E5C2E2E5C2E2E5C4472697665727324
:1025B0005C53544D3332463178785F48414C5F4428
:1025C00072697665725C5372635C73746D333266E4
:1025D0003178785F68616C5F756172742E6300009A
:1025E00070472DE9F843044690F83A00994616469C
:1025F0000D4620284FD195B18EB194F838000128AE
:1026000049D0012084F838000027E763222084F8AD
:102610003A00FFF743F9A6858046E68531E00120C0
:10262000BDE8F883E08D401EE085A0684346B0F524
:10263000805F4FF000024FF020012046CDF800905F
:1026400004D000F02AFB98B10320E9E700F025FB55
:102650000028F9D1206900282068406803D0C1B261
:1026600025F8011B0DE0C0F3080125F8021B08E066
:10267000206900282068406801D000F07F0005F83C
:10268000010BE08D0028CDD1202084F83A0084F899
:1026900038700020C4E70220C2E770472DE9F843F4
:1026A000044690F839001F4616460D46202850D1A2
:1026B000A5B19EB194F8380001284AD0012084F8D1
:1026C00038004FF00008C4F83C80212084F839001D
:1026D000FFF7E4F8A6848146E68426E00120BDE801
:1026E000F883E08C401EE084A0684B46B0F5805F24
:1026F0004FF000024FF080012046009703D000F019
:10270000CCFAE8B90DE000F0C8FAC8B92888216809
:10271000C0F308004860206908B16D1C05E0AD1CDD
:1027200003E0216815F8010B4860E08C0028D8D13F
:102730004B46002240212046009700F0AEFA08B137
:102740000320CCE7202084F8390084F8388000206A
:10275000C5E70220C3E77047FEE70000F0B500229E
:102760000D4B154614460A27B1FBF3F63036865456
:10277000B1FBF3F603FB1611B3FBF7F3521C8618FB
:1027800016F8016C302E00D125B16D1C641C0A2C8A
:10279000EAD3F0BD0022F9E700CA9A3BFEE7FEE764
:1027A000704700002DE9F84300240F460646904686
:1027B00013460C60012269462848FFF712FF050006
:1027C00020D19DF80000182820D006DC01280BD06D
:1027D00002280BD0042804D104E0412827D0612826
:1027E00025D0012530700DE0802401E04FF4806495
:1027F0003070221D4346B11C1848FFF7F2FE050059
:1028000017D0002428463C60BDE8F88343460122E7
:1028100069461248FFF7E5FE18B99DF80000182830
:1028200003D001259DF80000DCE70224DAE7022549
:10283000D8E7F178B07881F0FF0188420AD13019E9
:102840000179407900EB01282146301DFEF700FA9E
:102850004045D7D000240125D4E7000040040020E3
:102860007047000001B56423012269460148FFF763
:1028700015FF08BD40040020002201E0521C92B266
:10288000815C0029FAD1014664230148FFF706BFA5
:1028900040040020F0B5054600242A78204623464F
:1028A000302A2ED16A78782A01D0582A29D10224D8
:1028B0001CE000BFA2F14106052E07D9A2F1610775
:1028C000052F03D91136092E04D913E0A2F13007E0
:1028D000092F01D8303A04E0052E01D8373A00E03C
:1028E000573A641C02EB03130B2C04D22A5D002A16
:1028F000E0D103E000202A5D002A01D101200B6015
:10290000F0BD2A5D62B16B2A01D04B2A02D10CB115
:102910009B0205E06D2A01D04D2A04D11CB11B0594
:1029200001200B600AE0A2F13006092E0CD803EB5F
:1029300083036FF02F0606EB43031344641C0B2C38
:10294000DED20128DDD1F0BD0020F0BD10B5FEF7CC
:10295000ABFFBDE81040FFF72ABD30B593B028218A
:102960006846FDF708FC14210AA8FDF704FC0024C2
:1029700001210F9410940804CDE9001011941294D1
:10298000029402250491CDE907504FF4E01009901C
:102990006846FFF795FA0F20CDE90A056802CDE9F0
:1029A0000C4002210AA80E94FFF714F910200F9092
:1029B00012940FA8FFF760F8FFF726FA4FF47A7128
:1029C000B0FBF1F0FFF7DFFC0420FFF7C5FC0022AD
:1029D0001146501EFEF7F8FF13B030BD0D480168D8
:1029E00041F00101016041680B4A114041600168FA
:1029F0000A4A11400160016821F4802101604168A8
:102A000021F4FE0141604FF41F0181600449C003BD
:102A100008607047001002400000FFF8FFFFF6FE5C
:102A200008ED00E010B5406A0021C185C184FFF7C0
:102A3000C2FC10BD0168CA6822F49072CA600168C5
:102A40004A6922F001024A61202180F83A10704759
:102A500010B590F83A10222901D0022010BD8168EB
:102A6000B1F5805F11D00169002901681FD0496864
:102A700001F07F03816A4A1C82620B70C18D491E7E
:102A80000904090CC18518D02BE00269816A002A6B
:102A90000268526805D0D2B20A80816A491C8162FC
:102AA000ECE7C2F308020A80816A891CF7E74A68EA
:102AB000816A4B1C83620A70E0E70168CA6822F0F1
:102AC0002002CA600168CA6822F48072CA60016884
:102AD0004A6922F001024A61202180F83A10FFF78A
:102AE000DCFD002010BD00002DE9F04104464068E7
:102AF0003F49884204D940F6FD313EA000F0FAF982
:102B0000E06838B1B0F5005F04D040F6FE3139A07E
:102B100000F0F0F9206950B1B0F5806F07D0B0F542
:102B2000C06F04D040F6FF3132A000F0E3F96069D5
:102B30004FF6F371084200D120B94FF440612DA047
:102B400000F0D8F920680169E26821F4405111438E
:102B500001612169A0682268084361690843D1685E
:102B600041F20C6399430143D16020684169A26935
:102B700021F44071114341612E49206864253226B9
:102B8000884202D1FFF756F901E0FFF743F900EB65
:102B9000C00101EB001160686FF018078000B1FB05
:102BA000F0F2B2FBF5F2B1FBF0F37A4303EB8202F1
:102BB000B1FBF0F306EB0212B2FBF5F2B3FBF5F357
:102BC00002F0F00202EB0312B1FBF0F3B1FBF0F004
:102BD000B0FBF5F0784303EB800006EB0010B0FB90
:102BE000F5F0216800F00F0010448860BDE8F08126
:102BF00020AA44002E2E5C2E2E5C2E2E5C44726980
:102C0000766572735C53544D3332463178785F4841
:102C1000414C5F4472697665725C5372635C737495
:102C20006D3332663178785F68616C5F756172749C
:102C30002E6300000038014090F83910212901D09E
:102C4000022070478168B1F5805F016A0BD04A1C91
:102C50000262026809785160C18C491E0904090C9E
:102C6000C1840ED017E009880268C1F308015160E1
:102C700001690029016A02D0491C0162ECE7891C44
:102C8000FBE70168CA6822F08002CA600068C16878
:102C900041F04001C160002070472DE9F0419846A5
:102CA00017460E460446069D1DE0681C1BD02DB13C
:102CB000FEF7F4FDA0EB0800A84214D92068C16813
:102CC00021F4D071C1602068416921F001014161A6
:102CD000202084F8390084F83A00002084F8380075
:102CE0000320BDE8F0812068006836EA000004D0C7
:102CF0000020B842D9D00020F3E70120F9E7000016
:102D00000148FFF759BB00004004002041F48071E6
:102D100041F2210240004900CB0500D5401CC3030D
:102D200000D55040CB03F5D580B27047FEE70000D8
:102D30002DE9F74F002488B0DFF878B12746264602
:102D4000A2468846CDF800B0ABE000BF4FF00009C6
:102D50004D46A2E04FF47A7201A95748FFF722FDD1
:102D600060B1022868D0BAF1000F00D0761C052EA1
:102D70007CD91820FFF776FD18208CE001980026FA
:102D800060B1022805D04C498B784B450BD01520FB
:102D900081E00620FFF766FD02247EE00620FFF7B3
:102DA00061FD012579E0B9F1000F14D08208091DF9
:102DB0000098FDF79DFFE8B31820FFF753FD18209A
:102DC000FFF750FD5FF0040409F1010000F0FF0976
:102DD0004FF0010A61E0087968B30020091D03E0A3
:102DE00008F80020401C491C0A780AB14028F7D393
:102DF000002308F8003018460DF1080C03E000BF6E
:102E00000CF80020401C11F8012F202A01D01028B6
:102E1000F6D30CF8003007A96046FFF73BFD0A988F
:102E20004CF201010068884214D918208DF818006E
:102E30000C0502E021E01AE027E02346012206A962
:102E40001E48FFF72BFC2346012206A91B48FFF76B
:102E500025FC05241A495846FDF71BFF0A980799D7
:102E600001600620FFF7FEFC43200BE012E0062085
:102E7000FFF7F8FC01252F460FE0DDE900010844CB
:102E800000900620FFF7EEFC9EE71820FFF7EAFC13
:102E900018207FE74320FFF7E5FC55EA04003FF4E4
:102EA00059AF57EA04003FF451AF0BB02046BDE8DC
:102EB000F08F00000040000838000020400400208F
:102EC000000001080907090E002804DB00F1E020DA
:102ED00080F80014704700F00F0000F1E02080F847
:102EE000141D704702E008C8121F08C1002AFAD159
:102EF00070477047FEE70000000001020304000075
:102F0000FFFFFFFFFFFFFFFFFFFFFFFFFFFFFFFFD1
:102F1000FFFFFFFFFFFFFFFFFFFFFFFFFFFFFFFFC1
:102F2000FFFFFFFFFFFFFFFFFFFFFFFFFFFFFFFFB1
:102F3000FFFFFFFFFFFFFFFFFFFFFFFFFFFFFFFFA1
:102F4000FFFFFFFFFFFFFFFFFFFFFFFFFFFFFFFF91
:102F5000FFFFFFFFFFFFFFFFFFFFFFFFFFFFFFFF81
:102F6000FFFFFFFFFFFFFFFFFFFFFFFFFFFFFFFF71
:102F7000FFFFFFFFFFFFFFFFFFFFFFFFFFFFFFFF61
:102F8000FFFFFFFFFFFFFFFFFFFFFFFFFFFFFFFF51
:102F9000FFFFFFFFFFFFFFFFFFFFFFFFFFFFFFFF41
:102FA000FFFFFFFFFFFFFFFFFFFFFFFFFFFFFFFF31
:102FB000FFFFFFFFFFFFFFFFFFFFFFFFFFFFFFFF21
:102FC000FFFFFFFFFFFFFFFFFFFFFFFFFFFFFFFF11
:102FD000FFFFFFFFFFFFFFFFFFFFFFFFFFFFFFFF01
:102FE000FFFFFFFFFFFFFFFFFFFFFFFFFFFFFFFFF1
:102FF000FFFFFFFFFFFFFFFFFFFFFFFFFFFFFFFFE1
:103000002DE9F74F86B04FF0000A0120AC4E019039
:1030100001220898727086F802A0FF23D046554618
:103020005746F370544604E006EB040C641C8CF81D
:1030300004300B5D0BB1402CF6D332190021117115
:10304000014602A8FFF78AFB02A8641D02E0315581
:10305000641C7F1CC15D0029F9D14FF48019DFF891
:1030600060B202E000203055641C842CFAD31FE0CB
:103070005C464E464B468322611C9248FFF70EFB8E
:103080008021201DFDF7E4FD0446000AFFF7EAFB5E
:10309000E0B2FFF7E7FB3346012269468948FFF7B4
:1030A000A0FA60B10AF1010ABAF1050F00D30125B7
:1030B00058EA0500DCD006980290089C7CE09DF858
:1030C0000000062815D01828EED1334601226946A3
:1030D0007C48FFF786FA0028E6D19DF80000182802
:1030E000E2D10220FEF770F87648006840680225B9
:1030F000DAE74FF00108D7E7DDE90103704AC6B20D
:103100004FF480672046BC4201D3394600E080215D
:10311000884200D30846B1F5806F07D00127577069
:103120009670F643D6700426071D06E00227F6E7E0
:1031300013F801CB02F806C0761CBE42F8D38842D1
:1031400007D81A23001D091D01E01354401C8842B2
:10315000FBD34FF0000A8DF800A0574629E000BFCE
:103160004FF48066B44200D28026F21C4B46D8460B
:103170000BF101015348FFF791FA314608F10400C1
:10318000FDF766FD8046000AFFF76CFB08F0FF00C4
:10319000FFF768FB4B46012269464A48FFF721FAD0
:1031A00018B99DF80000062811D07F1C052F00D308
:1031B00001255AEA0500D3D00CB1002D9CD0002483
:1031C00026468DF800402746DFF8F8801FE0029879
:1031D0004FF0010A3044B442029008D90198A41B70
:1031E000302802D0401C0190E0E70525DEE70024EE
:1031F000DCE70420FFF736FB4B46012269463148E5
:10320000FFF7EFF940B17F1C052F00D3012554EAE9
:103210000500EED0E5B14EE09DF80000062815D07F
:103220001828F1D14B46012269462648FFF7D9F903
:103230000028E9D19DF800001828E5D10220FDF70B
:10324000C3FFD8F8000040680225DDE70124DBE772
:1032500001208BF801008BF80260FF208BF803003F
:103260005C4604202654401CC0B28428FAD34E4643
:103270004B468322611C1348FFF710FA8021201D62
:10328000FDF7E6FC0446000AFFF7ECFAE0B2FFF7B0
:10329000E9FA3346012269460A48FFF7A2F950B914
:1032A0009DF80000182806D10220FDF78DFFD8F800
:1032B00000004068022509B02846BDE8F08F0000F4
:1032C0003800002040040020BFF34F8F05480168FC
:1032D000054A01F4E06111430160BFF34F8F00BF65
:1032E000FDE700000CED00E00400FA05002001E01D
:1032F00001C1121F002AFBD1704700002DE9F04FD9
:103300003423012951DD93FBF1F300EB810903F133
:10331000060A002559F8043CDFF82CB1491E5D442B
:10332000C5F3810700241EE000EB84064FEA531C1E
:1033300076684FEAD6088CEA860C88EA0318C444FB
:1033400004F0030888EA07086E4052F8288088EAEB
:10335000030806EB08038CEA030C50F8243063449E
:1033600040F82430641C8C42DED3066804F0030469
:103370007C404FEA531C4FEAD6088CEA860C52F880
:10338000244088EA03186E405C403319C4448CEA38
:10339000030C59F8043CAAF10104634449F8043CC5
:1033A0005FEA040ABBD1BDE8F08FB1F1FF3FFADA62
:1033B0004D4293FBF5F3244903F10609D0F8004090
:1033C00009FB01F3C3F38107691E1FD000EB8106DF
:1033D0004FEAD40856F8046C4FEA561C8CEA840C69
:1033E00088EA0618E04483EA040C01F003047C40F8
:1033F00052F824407440644488EA040850F821409C
:10340000A4EB080440F82140491EDFD100EB850100
:103410004FEAD40C51F8041C52F827704E0986EA82
:1034200084068CEA011C5C404F406644E1194E4022
:1034300001688C1B0449046049420B44A9F1010155
:103440005FEA0109BED1AEE7B979379E05494FF071
:1034500000600860FEF730FAFFF77FFAFCF7A8FE7D
:10346000FEE7000008ED00E00000000000000000A2
:1034700001020304060708092E2E5C2E2E5C2E2E58
:103480005C447269766572735C53544D33324631D5
:1034900078785F48414C5F4472697665725C53721C
:1034A000635C73746D3332663178785F68616C5F2A
:1034B000636F727465782E63000000002E2E5C2E00
:1034C0002E5C2E2E5C447269766572735C53544D8B
:1034D0003332463178785F48414C5F447269766593
:1034E000725C5372635C73746D3332663178785FEB
:1034F00068616C5F666C6173685F65782E6300005D
:103500002E2E5C2E2E5C2E2E5C44726976657273B4
:103510005C53544D3332463178785F48414C5F44B8
:1035200072697665725C5372635C73746D33326674
:103530003178785F68616C5F7263635F65782E6372
:1035400000000000643500080000002018000000A2
:10355000E42E00087C35000818000020E80F000069
:10356000EC3200080024F40001000000100000000C
:0C35700000000000002F0008000F0020E9
:04000005080000ED02
:00000001FF
